{
  "contractName": "Voter",
  "abi": [
    {
      "anonymous": false,
      "inputs": [
        {
          "indexed": false,
          "internalType": "address",
          "name": "voter",
          "type": "address"
        },
        {
          "indexed": false,
          "internalType": "address",
          "name": "candidate",
          "type": "address"
        }
      ],
      "name": "Voted",
      "type": "event"
    },
    {
      "constant": true,
      "inputs": [
        {
          "internalType": "uint256",
          "name": "",
          "type": "uint256"
        }
      ],
      "name": "candidates",
      "outputs": [
        {
          "internalType": "address",
          "name": "",
          "type": "address"
        }
      ],
      "payable": false,
      "stateMutability": "view",
      "type": "function"
    },
    {
      "constant": false,
      "inputs": [
        {
          "internalType": "address",
          "name": "candidateId",
          "type": "address"
        }
      ],
      "name": "addCandidate",
      "outputs": [],
      "payable": false,
      "stateMutability": "nonpayable",
      "type": "function"
    },
    {
      "constant": false,
      "inputs": [
        {
          "internalType": "address",
          "name": "id",
          "type": "address"
        }
      ],
      "name": "vote",
      "outputs": [],
      "payable": false,
      "stateMutability": "nonpayable",
      "type": "function"
    },
    {
      "constant": true,
      "inputs": [
        {
          "internalType": "address",
          "name": "id",
          "type": "address"
        }
      ],
      "name": "getVotes",
      "outputs": [
        {
          "internalType": "uint256",
          "name": "",
          "type": "uint256"
        }
      ],
      "payable": false,
      "stateMutability": "view",
      "type": "function"
    },
    {
      "constant": true,
      "inputs": [],
      "name": "getWinner",
      "outputs": [
        {
          "internalType": "address",
          "name": "",
          "type": "address"
        }
      ],
      "payable": false,
      "stateMutability": "view",
      "type": "function"
    }
  ],
  "bytecode": "0x6080604052336000806101000a81548173ffffffffffffffffffffffffffffffffffffffff021916908373ffffffffffffffffffffffffffffffffffffffff1602179055506106d0806100536000396000f3fe608060405234801561001057600080fd5b50600436106100575760003560e01c80633477ee2e1461005c5780633acd75f8146100ca5780636dd7d8ea1461010e5780638e7ea5b2146101525780639ab24eb01461019c575b600080fd5b6100886004803603602081101561007257600080fd5b81019080803590602001909291905050506101f4565b604051808273ffffffffffffffffffffffffffffffffffffffff1673ffffffffffffffffffffffffffffffffffffffff16815260200191505060405180910390f35b61010c600480360360208110156100e057600080fd5b81019080803573ffffffffffffffffffffffffffffffffffffffff169060200190929190505050610230565b005b6101506004803603602081101561012457600080fd5b81019080803573ffffffffffffffffffffffffffffffffffffffff16906020019092919050505061035b565b005b61015a61047a565b604051808273ffffffffffffffffffffffffffffffffffffffff1673ffffffffffffffffffffffffffffffffffffffff16815260200191505060405180910390f35b6101de600480360360208110156101b257600080fd5b81019080803573ffffffffffffffffffffffffffffffffffffffff169060200190929190505050610652565b6040518082815260200191505060405180910390f35b6002818154811061020157fe5b906000526020600020016000915054906101000a900473ffffffffffffffffffffffffffffffffffffffff1681565b6000809054906101000a900473ffffffffffffffffffffffffffffffffffffffff1673ffffffffffffffffffffffffffffffffffffffff163373ffffffffffffffffffffffffffffffffffffffff16146102f2576040517f08c379a000000000000000000000000000000000000000000000000000000000815260040180806020018281038252601e8152602001807f53544f5021206f6e6c79206f776e65722063616e2063616c6c2074686973000081525060200191505060405180910390fd5b60028190806001815401808255809150509060018203906000526020600020016000909192909190916101000a81548173ffffffffffffffffffffffffffffffffffffffff021916908373ffffffffffffffffffffffffffffffffffffffff1602179055505050565b60018060008373ffffffffffffffffffffffffffffffffffffffff1673ffffffffffffffffffffffffffffffffffffffff1681526020019081526020016000205401600160008373ffffffffffffffffffffffffffffffffffffffff1673ffffffffffffffffffffffffffffffffffffffff168152602001908152602001600020819055507fce0c7a2a940807f7dc2ce7a615c2532e915e6c0ac9a08bc4ed9d515a710a53e23382604051808373ffffffffffffffffffffffffffffffffffffffff1673ffffffffffffffffffffffffffffffffffffffff1681526020018273ffffffffffffffffffffffffffffffffffffffff1673ffffffffffffffffffffffffffffffffffffffff1681526020019250505060405180910390a150565b600080600280549050116104f6576040517f08c379a000000000000000000000000000000000000000000000000000000000815260040180806020018281038252601b8152602001807f546865726520617265206e6f2063616e646964617465732062726f000000000081525060200191505060405180910390fd5b6000600260008154811061050657fe5b9060005260206000200160009054906101000a900473ffffffffffffffffffffffffffffffffffffffff1690506000600190505b60028054905081101561064a57600160008373ffffffffffffffffffffffffffffffffffffffff1673ffffffffffffffffffffffffffffffffffffffff16815260200190815260200160002054600160006002848154811061059857fe5b9060005260206000200160009054906101000a900473ffffffffffffffffffffffffffffffffffffffff1673ffffffffffffffffffffffffffffffffffffffff1673ffffffffffffffffffffffffffffffffffffffff16815260200190815260200160002054111561063f576002818154811061061157fe5b9060005260206000200160009054906101000a900473ffffffffffffffffffffffffffffffffffffffff1691505b60018101905061053a565b508091505090565b6000600160008373ffffffffffffffffffffffffffffffffffffffff1673ffffffffffffffffffffffffffffffffffffffff16815260200190815260200160002054905091905056fea265627a7a72315820025a7ba4b04f4335e26ef4c4c1f642837c8b4ebe70e5ae80e446cb55ca58315f64736f6c63430005100032",
  "source": "pragma solidity ^0.5.0;\n\nimport \"./Ownable.sol\";\n\ninterface Winnable {\n    function getWinner() external view returns(address);\n}\n\ncontract Voter is Ownable, Winnable {\n    \n    mapping (address => uint) votes;\n    address[] public candidates;  //#\n\n    event Voted(address voter, address candidate);\n\n    function addCandidate(address candidateId) onlyOwner external {\n        candidates.push(candidateId);\n    }\n    \n    function vote(address id) external {\n        votes[id] = votes[id] + 1;\n        emit Voted(msg.sender, id);\n    }\n    \n    function getVotes(address id) external view returns(uint) {\n        return votes[id];\n    }\n    \n    function getWinner() external  view returns(address) { //#\n        require(candidates.length > 0, \"There are no candidates bro\");\n        address maxVotesCandidate = candidates[0];\n        for (uint i = 1; i < candidates.length; i=i+1) {\n            if ( votes[candidates[i]]  > votes[maxVotesCandidate] ) {\n                maxVotesCandidate = candidates[i];\n            }\n        }\n        return maxVotesCandidate;\n    }\n}",
  "sourcePath": "/Users/mahmoudfathy/Developer/blockchain-workspace/voter-dapp/eth-contracts/contracts/Voter.sol",
  "compiler": {
    "name": "solc",
    "version": "0.5.16+commit.9c3226ce.Emscripten.clang"
  },
  "schemaVersion": "3.0.23",
  "updatedAt": "2020-07-25T15:49:19.246Z",
  "networkType": "ethereum",
  "devdoc": {
    "methods": {}
  },
  "userdoc": {
    "methods": {}
  }
}